{
  "contractName": "ProductRegistry",
  "abi": [
    {
      "anonymous": false,
      "inputs": [
        {
          "indexed": false,
          "internalType": "uint256",
          "name": "id",
          "type": "uint256"
        },
        {
          "indexed": false,
          "internalType": "string",
          "name": "serial",
          "type": "string"
        },
        {
          "indexed": false,
          "internalType": "address",
          "name": "manufacturer",
          "type": "address"
        }
      ],
      "name": "ProductRegistered",
      "type": "event"
    },
    {
      "inputs": [],
      "name": "productCount",
      "outputs": [
        {
          "internalType": "uint256",
          "name": "",
          "type": "uint256"
        }
      ],
      "stateMutability": "view",
      "type": "function",
      "constant": true
    },
    {
      "inputs": [
        {
          "internalType": "uint256",
          "name": "",
          "type": "uint256"
        }
      ],
      "name": "products",
      "outputs": [
        {
          "internalType": "uint256",
          "name": "id",
          "type": "uint256"
        },
        {
          "internalType": "string",
          "name": "serialNumber",
          "type": "string"
        },
        {
          "internalType": "string",
          "name": "name",
          "type": "string"
        },
        {
          "internalType": "address",
          "name": "manufacturer",
          "type": "address"
        },
        {
          "internalType": "bool",
          "name": "exists",
          "type": "bool"
        }
      ],
      "stateMutability": "view",
      "type": "function",
      "constant": true
    },
    {
      "inputs": [
        {
          "internalType": "string",
          "name": "serial",
          "type": "string"
        },
        {
          "internalType": "string",
          "name": "name",
          "type": "string"
        }
      ],
      "name": "registerProduct",
      "outputs": [],
      "stateMutability": "nonpayable",
      "type": "function"
    },
    {
      "inputs": [
        {
          "internalType": "uint256",
          "name": "id",
          "type": "uint256"
        }
      ],
      "name": "getProduct",
      "outputs": [
        {
          "internalType": "uint256",
          "name": "",
          "type": "uint256"
        },
        {
          "internalType": "string",
          "name": "",
          "type": "string"
        },
        {
          "internalType": "string",
          "name": "",
          "type": "string"
        },
        {
          "internalType": "address",
          "name": "",
          "type": "address"
        },
        {
          "internalType": "bool",
          "name": "",
          "type": "bool"
        }
      ],
      "stateMutability": "view",
      "type": "function",
      "constant": true
    }
  ],
  "bytecode": "0x608060405234801561001057600080fd5b50610c58806100206000396000f3fe608060405234801561001057600080fd5b506004361061004c5760003560e01c80637acc0b20146100515780638fbd0dcf14610085578063b9db15b4146100a1578063e0f6ef87146100d5575b600080fd5b61006b600480360381019061006691906107ef565b6100f3565b60405161007c95949392919061097f565b60405180910390f35b61009f600480360381019061009a9190610783565b610266565b005b6100bb60048036038101906100b691906107ef565b610467565b6040516100cc95949392919061097f565b60405180910390f35b6100dd61065d565b6040516100ea9190610926565b60405180910390f35b600160205280600052604060002060009150905080600001549080600101805461011c90610af2565b80601f016020809104026020016040519081016040528092919081815260200182805461014890610af2565b80156101955780601f1061016a57610100808354040283529160200191610195565b820191906000526020600020905b81548152906001019060200180831161017857829003601f168201915b5050505050908060020180546101aa90610af2565b80601f01602080910402602001604051908101604052809291908181526020018280546101d690610af2565b80156102235780601f106101f857610100808354040283529160200191610223565b820191906000526020600020905b81548152906001019060200180831161020657829003601f168201915b5050505050908060030160009054906101000a900473ffffffffffffffffffffffffffffffffffffffff16908060030160149054906101000a900460ff16905085565b8160028160405161027791906108ef565b908152602001604051809103902060009054906101000a900460ff16156102d3576040517f08c379a00000000000000000000000000000000000000000000000000000000081526004016102ca90610906565b60405180910390fd5b6000808154809291906102e590610b24565b91905055506040518060a0016040528060005481526020018481526020018381526020013373ffffffffffffffffffffffffffffffffffffffff168152602001600115158152506001600080548152602001908152602001600020600082015181600001556020820151816001019080519060200190610366929190610663565b506040820151816002019080519060200190610383929190610663565b5060608201518160030160006101000a81548173ffffffffffffffffffffffffffffffffffffffff021916908373ffffffffffffffffffffffffffffffffffffffff16021790555060808201518160030160146101000a81548160ff021916908315150217905550905050600160028460405161040091906108ef565b908152602001604051809103902060006101000a81548160ff0219169083151502179055507fd810998a0248808a33b20218e71759cb2ec1a182b398350ad606d742587c012c600054843360405161045a93929190610941565b60405180910390a1505050565b60006060806000806000600160008881526020019081526020016000206040518060a0016040529081600082015481526020016001820180546104a990610af2565b80601f01602080910402602001604051908101604052809291908181526020018280546104d590610af2565b80156105225780601f106104f757610100808354040283529160200191610522565b820191906000526020600020905b81548152906001019060200180831161050557829003601f168201915b5050505050815260200160028201805461053b90610af2565b80601f016020809104026020016040519081016040528092919081815260200182805461056790610af2565b80156105b45780601f10610589576101008083540402835291602001916105b4565b820191906000526020600020905b81548152906001019060200180831161059757829003601f168201915b505050505081526020016003820160009054906101000a900473ffffffffffffffffffffffffffffffffffffffff1673ffffffffffffffffffffffffffffffffffffffff1673ffffffffffffffffffffffffffffffffffffffff1681526020016003820160149054906101000a900460ff161515151581525050905080600001518160200151826040015183606001518460800151955095509550955095505091939590929450565b60005481565b82805461066f90610af2565b90600052602060002090601f01602090048101928261069157600085556106d8565b82601f106106aa57805160ff19168380011785556106d8565b828001600101855582156106d8579182015b828111156106d75782518255916020019190600101906106bc565b5b5090506106e591906106e9565b5090565b5b808211156107025760008160009055506001016106ea565b5090565b600061071961071484610a11565b6109e0565b90508281526020810184848401111561073157600080fd5b61073c848285610ab0565b509392505050565b600082601f83011261075557600080fd5b8135610765848260208601610706565b91505092915050565b60008135905061077d81610c0b565b92915050565b6000806040838503121561079657600080fd5b600083013567ffffffffffffffff8111156107b057600080fd5b6107bc85828601610744565b925050602083013567ffffffffffffffff8111156107d957600080fd5b6107e585828601610744565b9150509250929050565b60006020828403121561080157600080fd5b600061080f8482850161076e565b91505092915050565b61082181610a68565b82525050565b61083081610a7a565b82525050565b600061084182610a41565b61084b8185610a4c565b935061085b818560208601610abf565b61086481610bfa565b840191505092915050565b600061087a82610a41565b6108848185610a5d565b9350610894818560208601610abf565b80840191505092915050565b60006108ad601983610a4c565b91507f53657269616c20616c72656164792072656769737465726564000000000000006000830152602082019050919050565b6108e981610aa6565b82525050565b60006108fb828461086f565b915081905092915050565b6000602082019050818103600083015261091f816108a0565b9050919050565b600060208201905061093b60008301846108e0565b92915050565b600060608201905061095660008301866108e0565b81810360208301526109688185610836565b90506109776040830184610818565b949350505050565b600060a08201905061099460008301886108e0565b81810360208301526109a68187610836565b905081810360408301526109ba8186610836565b90506109c96060830185610818565b6109d66080830184610827565b9695505050505050565b6000604051905081810181811067ffffffffffffffff82111715610a0757610a06610bcb565b5b8060405250919050565b600067ffffffffffffffff821115610a2c57610a2b610bcb565b5b601f19601f8301169050602081019050919050565b600081519050919050565b600082825260208201905092915050565b600081905092915050565b6000610a7382610a86565b9050919050565b60008115159050919050565b600073ffffffffffffffffffffffffffffffffffffffff82169050919050565b6000819050919050565b82818337600083830152505050565b60005b83811015610add578082015181840152602081019050610ac2565b83811115610aec576000848401525b50505050565b60006002820490506001821680610b0a57607f821691505b60208210811415610b1e57610b1d610b9c565b5b50919050565b6000610b2f82610aa6565b91507fffffffffffffffffffffffffffffffffffffffffffffffffffffffffffffffff821415610b6257610b61610b6d565b5b600182019050919050565b7f4e487b7100000000000000000000000000000000000000000000000000000000600052601160045260246000fd5b7f4e487b7100000000000000000000000000000000000000000000000000000000600052602260045260246000fd5b7f4e487b7100000000000000000000000000000000000000000000000000000000600052604160045260246000fd5b6000601f19601f8301169050919050565b610c1481610aa6565b8114610c1f57600080fd5b5056fea26469706673582212208c3bbd0b80e1a5fa875155416807462320a60588601500c250f7cdf2ea3f4b1a64736f6c63430008000033",
  "immutableReferences": {},
  "source": "// SPDX-License-Identifier: MIT\r\npragma solidity ^0.8.0;\r\n\r\ncontract ProductRegistry {\r\n\r\n    struct Product {\r\n        uint256 id;\r\n        string serialNumber;\r\n        string name;\r\n        address manufacturer;\r\n        bool exists;\r\n    }\r\n\r\n    uint256 public productCount;\r\n\r\n    mapping(uint256 => Product) public products;\r\n\r\n    mapping(string => bool) private serialExists;\r\n\r\n    event ProductRegistered(\r\n        uint256 id,\r\n        string serial,\r\n        address manufacturer\r\n    );\r\n\r\n    modifier onlyNewSerial(string memory serial) {\r\n        require(!serialExists[serial], \"Serial already registered\");\r\n        _;\r\n    }\r\n\r\n    function registerProduct(\r\n        string memory serial,\r\n        string memory name\r\n    )\r\n        public\r\n        onlyNewSerial(serial)\r\n    {\r\n        productCount++;\r\n\r\n        products[productCount] = Product(\r\n            productCount,\r\n            serial,\r\n            name,\r\n            msg.sender,\r\n            true\r\n        );\r\n\r\n        serialExists[serial] = true;\r\n\r\n        emit ProductRegistered(\r\n            productCount,\r\n            serial,\r\n            msg.sender\r\n        );\r\n    }\r\n\r\n    function getProduct(uint256 id)\r\n        public\r\n        view\r\n        returns (\r\n            uint256,\r\n            string memory,\r\n            string memory,\r\n            address,\r\n            bool\r\n        )\r\n    {\r\n        Product memory p = products[id];\r\n\r\n        return (\r\n            p.id,\r\n            p.serialNumber,\r\n            p.name,\r\n            p.manufacturer,\r\n            p.exists\r\n        );\r\n    }\r\n}",
  "sourcePath": "C:\\Users\\Asus Tuf\\OneDrive\\Desktop\\challenge\\challenge-2\\contracts\\ProductRegistry.sol",
  "compiler": {
    "name": "solc",
    "version": "0.8.0+commit.c7dfd78e.Emscripten.clang"
  },
  "schemaVersion": "3.4.16",
  "updatedAt": "2026-05-29T15:25:08.397Z",
  "networkType": "ethereum",
  "devdoc": {
    "kind": "dev",
    "methods": {},
    "version": 1
  },
  "userdoc": {
    "kind": "user",
    "methods": {},
    "version": 1
  }
}